{
  "_format": "hh-sol-artifact-1",
  "contractName": "Proxy",
  "sourceName": "contracts/Proxy.sol",
  "abi": [
    {
      "inputs": [
        {
          "internalType": "address",
          "name": "erc20TokenAddress",
          "type": "address"
        },
        {
          "internalType": "address",
          "name": "erc721TokenAddress",
          "type": "address"
        },
        {
          "internalType": "uint256",
          "name": "_nftTokenId",
          "type": "uint256"
        },
        {
          "internalType": "uint256",
          "name": "_reservePrice",
          "type": "uint256"
        },
        {
          "internalType": "uint256",
          "name": "_numBlocksAuctionOpen",
          "type": "uint256"
        },
        {
          "internalType": "uint256",
          "name": "_offerPriceDecrement",
          "type": "uint256"
        }
      ],
      "stateMutability": "nonpayable",
      "type": "constructor"
    },
    {
      "stateMutability": "nonpayable",
      "type": "fallback"
    },
    {
      "inputs": [],
      "name": "ERC20TokenAddress",
      "outputs": [
        {
          "internalType": "address",
          "name": "",
          "type": "address"
        }
      ],
      "stateMutability": "view",
      "type": "function"
    },
    {
      "inputs": [],
      "name": "ERC721TokenAddress",
      "outputs": [
        {
          "internalType": "address",
          "name": "",
          "type": "address"
        }
      ],
      "stateMutability": "view",
      "type": "function"
    },
    {
      "inputs": [
        {
          "internalType": "uint256",
          "name": "_tokenAmount",
          "type": "uint256"
        }
      ],
      "name": "bid",
      "outputs": [],
      "stateMutability": "nonpayable",
      "type": "function"
    },
    {
      "inputs": [],
      "name": "logicContractAddress",
      "outputs": [
        {
          "internalType": "address",
          "name": "",
          "type": "address"
        }
      ],
      "stateMutability": "view",
      "type": "function"
    },
    {
      "inputs": [],
      "name": "nft",
      "outputs": [
        {
          "internalType": "contract IERC721",
          "name": "",
          "type": "address"
        }
      ],
      "stateMutability": "view",
      "type": "function"
    },
    {
      "inputs": [],
      "name": "nftId",
      "outputs": [
        {
          "internalType": "uint256",
          "name": "",
          "type": "uint256"
        }
      ],
      "stateMutability": "view",
      "type": "function"
    },
    {
      "inputs": [],
      "name": "numBlocksAuctionOpen",
      "outputs": [
        {
          "internalType": "uint256",
          "name": "",
          "type": "uint256"
        }
      ],
      "stateMutability": "view",
      "type": "function"
    },
    {
      "inputs": [],
      "name": "offerPriceDecrement",
      "outputs": [
        {
          "internalType": "uint256",
          "name": "",
          "type": "uint256"
        }
      ],
      "stateMutability": "view",
      "type": "function"
    },
    {
      "inputs": [],
      "name": "owner",
      "outputs": [
        {
          "internalType": "address",
          "name": "",
          "type": "address"
        }
      ],
      "stateMutability": "view",
      "type": "function"
    },
    {
      "inputs": [],
      "name": "reservePrice",
      "outputs": [
        {
          "internalType": "uint256",
          "name": "",
          "type": "uint256"
        }
      ],
      "stateMutability": "view",
      "type": "function"
    },
    {
      "inputs": [],
      "name": "seller",
      "outputs": [
        {
          "internalType": "address payable",
          "name": "",
          "type": "address"
        }
      ],
      "stateMutability": "view",
      "type": "function"
    },
    {
      "inputs": [],
      "name": "startedBlockNumber",
      "outputs": [
        {
          "internalType": "uint256",
          "name": "",
          "type": "uint256"
        }
      ],
      "stateMutability": "view",
      "type": "function"
    },
    {
      "inputs": [],
      "name": "startingPrice",
      "outputs": [
        {
          "internalType": "uint256",
          "name": "",
          "type": "uint256"
        }
      ],
      "stateMutability": "view",
      "type": "function"
    },
    {
      "inputs": [],
      "name": "token",
      "outputs": [
        {
          "internalType": "contract IERC20",
          "name": "",
          "type": "address"
        }
      ],
      "stateMutability": "view",
      "type": "function"
    },
    {
      "inputs": [
        {
          "internalType": "address",
          "name": "_logicContractAddress",
          "type": "address"
        }
      ],
      "name": "upgrade",
      "outputs": [],
      "stateMutability": "nonpayable",
      "type": "function"
    },
    {
      "inputs": [],
      "name": "user",
      "outputs": [
        {
          "internalType": "address",
          "name": "",
          "type": "address"
        }
      ],
      "stateMutability": "view",
      "type": "function"
    },
    {
      "inputs": [],
      "name": "winner",
      "outputs": [
        {
          "internalType": "address",
          "name": "",
          "type": "address"
        }
      ],
      "stateMutability": "view",
      "type": "function"
    }
  ],
  "bytecode": "0x60806040523480156200001157600080fd5b5060405162000f2038038062000f2083398181016040528101906200003791906200022f565b336000806101000a81548173ffffffffffffffffffffffffffffffffffffffff021916908373ffffffffffffffffffffffffffffffffffffffff1602179055508082620000859190620002fa565b836200009291906200035b565b600881905550436009819055508260058190555081600681905550806007819055508360048190555033600d60006101000a81548173ffffffffffffffffffffffffffffffffffffffff021916908373ffffffffffffffffffffffffffffffffffffffff16021790555085600260006101000a81548173ffffffffffffffffffffffffffffffffffffffff021916908373ffffffffffffffffffffffffffffffffffffffff16021790555084600360006101000a81548173ffffffffffffffffffffffffffffffffffffffff021916908373ffffffffffffffffffffffffffffffffffffffff160217905550505050505050620003b8565b600080fd5b600073ffffffffffffffffffffffffffffffffffffffff82169050919050565b6000620001bc826200018f565b9050919050565b620001ce81620001af565b8114620001da57600080fd5b50565b600081519050620001ee81620001c3565b92915050565b6000819050919050565b6200020981620001f4565b81146200021557600080fd5b50565b6000815190506200022981620001fe565b92915050565b60008060008060008060c087890312156200024f576200024e6200018a565b5b60006200025f89828a01620001dd565b96505060206200027289828a01620001dd565b95505060406200028589828a0162000218565b94505060606200029889828a0162000218565b9350506080620002ab89828a0162000218565b92505060a0620002be89828a0162000218565b9150509295509295509295565b7f4e487b7100000000000000000000000000000000000000000000000000000000600052601160045260246000fd5b60006200030782620001f4565b91506200031483620001f4565b9250817fffffffffffffffffffffffffffffffffffffffffffffffffffffffffffffffff048311821515161562000350576200034f620002cb565b5b828202905092915050565b60006200036882620001f4565b91506200037583620001f4565b9250827fffffffffffffffffffffffffffffffffffffffffffffffffffffffffffffffff03821115620003ad57620003ac620002cb565b5b828201905092915050565b610b5880620003c86000396000f3fe608060405234801561001057600080fd5b506004361061010f5760003560e01c80634f8632ba116100a2578063d3642a8811610071578063d3642a8814610346578063d6fbf20214610364578063db2e1eed14610382578063dfbf53ae146103a0578063fc0c546a146103be57610110565b80634f8632ba146102ce5780638da5cb5b146102ec578063bccda8101461030a578063c6bc51821461032857610110565b80633103ea62116100de5780633103ea6214610258578063454a2ab31461027657806347ccca02146102925780634a202600146102b057610110565b806308551a53146101e25780630900f010146102005780631aef99b71461021c5780631d3a78be1461023a57610110565b5b6000600160009054906101000a900473ffffffffffffffffffffffffffffffffffffffff1673ffffffffffffffffffffffffffffffffffffffff1660003660405161015c9291906107cd565b600060405180830381855af49150503d8060008114610197576040519150601f19603f3d011682016040523d82523d6000602084013e61019c565b606091505b50509050806101e0576040517f08c379a00000000000000000000000000000000000000000000000000000000081526004016101d790610843565b60405180910390fd5b005b6101ea6103dc565b6040516101f791906108a4565b60405180910390f35b61021a60048036038101906102159190610902565b610400565b005b61022461049e565b604051610231919061093e565b60405180910390f35b6102426104c4565b60405161024f919061093e565b60405180910390f35b6102606104ea565b60405161026d9190610972565b60405180910390f35b610290600480360381019061028b91906109b9565b6104f0565b005b61029a61068c565b6040516102a79190610a45565b60405180910390f35b6102b86106b2565b6040516102c59190610972565b60405180910390f35b6102d66106b8565b6040516102e3919061093e565b60405180910390f35b6102f46106de565b604051610301919061093e565b60405180910390f35b610312610704565b60405161031f919061093e565b60405180910390f35b61033061072a565b60405161033d9190610972565b60405180910390f35b61034e610730565b60405161035b9190610972565b60405180910390f35b61036c610736565b6040516103799190610972565b60405180910390f35b61038a61073c565b6040516103979190610972565b60405180910390f35b6103a8610742565b6040516103b5919061093e565b60405180910390f35b6103c6610768565b6040516103d39190610a81565b60405180910390f35b60008054906101000a900473ffffffffffffffffffffffffffffffffffffffff1681565b600d60009054906101000a900473ffffffffffffffffffffffffffffffffffffffff1673ffffffffffffffffffffffffffffffffffffffff163373ffffffffffffffffffffffffffffffffffffffff161461045a57600080fd5b80600160006101000a81548173ffffffffffffffffffffffffffffffffffffffff021916908373ffffffffffffffffffffffffffffffffffffffff16021790555050565b600260009054906101000a900473ffffffffffffffffffffffffffffffffffffffff1681565b600360009054906101000a900473ffffffffffffffffffffffffffffffffffffffff1681565b60065481565b33600e60006101000a81548173ffffffffffffffffffffffffffffffffffffffff021916908373ffffffffffffffffffffffffffffffffffffffff160217905550600160009054906101000a900473ffffffffffffffffffffffffffffffffffffffff1673ffffffffffffffffffffffffffffffffffffffff168160405160240161057b9190610972565b6040516020818303038152906040527f454a2ab3000000000000000000000000000000000000000000000000000000007bffffffffffffffffffffffffffffffffffffffffffffffffffffffff19166020820180517bffffffffffffffffffffffffffffffffffffffffffffffffffffffff83818316178352505050506040516106059190610b0b565b600060405180830381855af49150503d8060008114610640576040519150601f19603f3d011682016040523d82523d6000602084013e610645565b606091505b50505033600c60006101000a81548173ffffffffffffffffffffffffffffffffffffffff021916908373ffffffffffffffffffffffffffffffffffffffff16021790555050565b600a60009054906101000a900473ffffffffffffffffffffffffffffffffffffffff1681565b60095481565b600e60009054906101000a900473ffffffffffffffffffffffffffffffffffffffff1681565b600d60009054906101000a900473ffffffffffffffffffffffffffffffffffffffff1681565b600160009054906101000a900473ffffffffffffffffffffffffffffffffffffffff1681565b60045481565b60075481565b60085481565b60055481565b600c60009054906101000a900473ffffffffffffffffffffffffffffffffffffffff1681565b600b60009054906101000a900473ffffffffffffffffffffffffffffffffffffffff1681565b600081905092915050565b82818337600083830152505050565b60006107b4838561078e565b93506107c1838584610799565b82840190509392505050565b60006107da8284866107a8565b91508190509392505050565b600082825260208201905092915050565b7f64656c65676174652063616c6c206661696c6564000000000000000000000000600082015250565b600061082d6014836107e6565b9150610838826107f7565b602082019050919050565b6000602082019050818103600083015261085c81610820565b9050919050565b600073ffffffffffffffffffffffffffffffffffffffff82169050919050565b600061088e82610863565b9050919050565b61089e81610883565b82525050565b60006020820190506108b96000830184610895565b92915050565b600080fd5b60006108cf82610863565b9050919050565b6108df816108c4565b81146108ea57600080fd5b50565b6000813590506108fc816108d6565b92915050565b600060208284031215610918576109176108bf565b5b6000610926848285016108ed565b91505092915050565b610938816108c4565b82525050565b6000602082019050610953600083018461092f565b92915050565b6000819050919050565b61096c81610959565b82525050565b60006020820190506109876000830184610963565b92915050565b61099681610959565b81146109a157600080fd5b50565b6000813590506109b38161098d565b92915050565b6000602082840312156109cf576109ce6108bf565b5b60006109dd848285016109a4565b91505092915050565b6000819050919050565b6000610a0b610a06610a0184610863565b6109e6565b610863565b9050919050565b6000610a1d826109f0565b9050919050565b6000610a2f82610a12565b9050919050565b610a3f81610a24565b82525050565b6000602082019050610a5a6000830184610a36565b92915050565b6000610a6b82610a12565b9050919050565b610a7b81610a60565b82525050565b6000602082019050610a966000830184610a72565b92915050565b600081519050919050565b60005b83811015610ac5578082015181840152602081019050610aaa565b83811115610ad4576000848401525b50505050565b6000610ae582610a9c565b610aef818561078e565b9350610aff818560208601610aa7565b80840191505092915050565b6000610b178284610ada565b91508190509291505056fea2646970667358221220133954cce1cd258ea3f7ffecf127db7c41e427fb84af7a6f27eb15a0d18b0f9664736f6c634300080d0033",
  "linkReferences": {},
  "deployedLinkReferences": {}
}