{
  "_format": "hh-sol-artifact-1",
  "contractName": "DutchAuctionNFT",
  "sourceName": "contracts/DutchAuctionNFT.sol",
  "abi": [
    {
      "inputs": [],
      "name": "ERC20TokenAddress",
      "outputs": [
        {
          "internalType": "address",
          "name": "",
          "type": "address"
        }
      ],
      "stateMutability": "view",
      "type": "function"
    },
    {
      "inputs": [],
      "name": "ERC721TokenAddress",
      "outputs": [
        {
          "internalType": "address",
          "name": "",
          "type": "address"
        }
      ],
      "stateMutability": "view",
      "type": "function"
    },
    {
      "inputs": [
        {
          "internalType": "uint256",
          "name": "_tokenAmount",
          "type": "uint256"
        }
      ],
      "name": "bid",
      "outputs": [],
      "stateMutability": "nonpayable",
      "type": "function"
    },
    {
      "inputs": [],
      "name": "logicContractAddress",
      "outputs": [
        {
          "internalType": "address",
          "name": "",
          "type": "address"
        }
      ],
      "stateMutability": "view",
      "type": "function"
    },
    {
      "inputs": [],
      "name": "nft",
      "outputs": [
        {
          "internalType": "contract IERC721",
          "name": "",
          "type": "address"
        }
      ],
      "stateMutability": "view",
      "type": "function"
    },
    {
      "inputs": [],
      "name": "nftId",
      "outputs": [
        {
          "internalType": "uint256",
          "name": "",
          "type": "uint256"
        }
      ],
      "stateMutability": "view",
      "type": "function"
    },
    {
      "inputs": [],
      "name": "numBlocksAuctionOpen",
      "outputs": [
        {
          "internalType": "uint256",
          "name": "",
          "type": "uint256"
        }
      ],
      "stateMutability": "view",
      "type": "function"
    },
    {
      "inputs": [],
      "name": "offerPriceDecrement",
      "outputs": [
        {
          "internalType": "uint256",
          "name": "",
          "type": "uint256"
        }
      ],
      "stateMutability": "view",
      "type": "function"
    },
    {
      "inputs": [],
      "name": "reservePrice",
      "outputs": [
        {
          "internalType": "uint256",
          "name": "",
          "type": "uint256"
        }
      ],
      "stateMutability": "view",
      "type": "function"
    },
    {
      "inputs": [],
      "name": "seller",
      "outputs": [
        {
          "internalType": "address payable",
          "name": "",
          "type": "address"
        }
      ],
      "stateMutability": "view",
      "type": "function"
    },
    {
      "inputs": [],
      "name": "startedBlockNumber",
      "outputs": [
        {
          "internalType": "uint256",
          "name": "",
          "type": "uint256"
        }
      ],
      "stateMutability": "view",
      "type": "function"
    },
    {
      "inputs": [],
      "name": "startingPrice",
      "outputs": [
        {
          "internalType": "uint256",
          "name": "",
          "type": "uint256"
        }
      ],
      "stateMutability": "view",
      "type": "function"
    },
    {
      "inputs": [],
      "name": "token",
      "outputs": [
        {
          "internalType": "contract IERC20",
          "name": "",
          "type": "address"
        }
      ],
      "stateMutability": "view",
      "type": "function"
    },
    {
      "inputs": [],
      "name": "user",
      "outputs": [
        {
          "internalType": "address",
          "name": "",
          "type": "address"
        }
      ],
      "stateMutability": "view",
      "type": "function"
    },
    {
      "inputs": [],
      "name": "winner",
      "outputs": [
        {
          "internalType": "address",
          "name": "",
          "type": "address"
        }
      ],
      "stateMutability": "view",
      "type": "function"
    }
  ],
  "bytecode": "0x608060405234801561001057600080fd5b50610eb1806100206000396000f3fe608060405234801561001057600080fd5b50600436106100f55760003560e01c80634f8632ba11610097578063d6fbf20211610066578063d6fbf20214610242578063db2e1eed14610260578063dfbf53ae1461027e578063fc0c546a1461029c576100f5565b80634f8632ba146101ca578063bccda810146101e8578063c6bc518214610206578063d3642a8814610224576100f5565b80633103ea62116100d35780633103ea6214610154578063454a2ab31461017257806347ccca021461018e5780634a202600146101ac576100f5565b806308551a53146100fa5780631aef99b7146101185780631d3a78be14610136575b600080fd5b6101026102ba565b60405161010f9190610902565b60405180910390f35b6101206102de565b60405161012d919061093e565b60405180910390f35b61013e610304565b60405161014b919061093e565b60405180910390f35b61015c61032a565b6040516101699190610972565b60405180910390f35b61018c600480360381019061018791906109be565b610330565b005b6101966107e5565b6040516101a39190610a4a565b60405180910390f35b6101b461080b565b6040516101c19190610972565b60405180910390f35b6101d2610811565b6040516101df919061093e565b60405180910390f35b6101f0610837565b6040516101fd919061093e565b60405180910390f35b61020e61085d565b60405161021b9190610972565b60405180910390f35b61022c610863565b6040516102399190610972565b60405180910390f35b61024a610869565b6040516102579190610972565b60405180910390f35b61026861086f565b6040516102759190610972565b60405180910390f35b610286610875565b604051610293919061093e565b60405180910390f35b6102a461089b565b6040516102b19190610a86565b60405180910390f35b60008054906101000a900473ffffffffffffffffffffffffffffffffffffffff1681565b600260009054906101000a900473ffffffffffffffffffffffffffffffffffffffff1681565b600360009054906101000a900473ffffffffffffffffffffffffffffffffffffffff1681565b60065481565b600073ffffffffffffffffffffffffffffffffffffffff16600c60009054906101000a900473ffffffffffffffffffffffffffffffffffffffff1673ffffffffffffffffffffffffffffffffffffffff16146103c1576040517f08c379a00000000000000000000000000000000000000000000000000000000081526004016103b890610afe565b60405180910390fd5b600554811015610406576040517f08c379a00000000000000000000000000000000000000000000000000000000081526004016103fd90610b6a565b60405180910390fd5b6000600954436104169190610bb9565b90506000816007546104289190610bed565b905060008160085461043a9190610bb9565b90508381111561047f576040517f08c379a000000000000000000000000000000000000000000000000000000000815260040161047690610c93565b60405180910390fd5b600260009054906101000a900473ffffffffffffffffffffffffffffffffffffffff16600b60006101000a81548173ffffffffffffffffffffffffffffffffffffffff021916908373ffffffffffffffffffffffffffffffffffffffff160217905550600360009054906101000a900473ffffffffffffffffffffffffffffffffffffffff16600a60006101000a81548173ffffffffffffffffffffffffffffffffffffffff021916908373ffffffffffffffffffffffffffffffffffffffff1602179055506000600b60009054906101000a900473ffffffffffffffffffffffffffffffffffffffff1673ffffffffffffffffffffffffffffffffffffffff166370a08231336040518263ffffffff1660e01b81526004016105a2919061093e565b602060405180830381865afa1580156105bf573d6000803e3d6000fd5b505050506040513d601f19601f820116820180604052508101906105e39190610cc8565b9050848111610627576040517f08c379a000000000000000000000000000000000000000000000000000000000815260040161061e90610d67565b60405180910390fd5b600b60009054906101000a900473ffffffffffffffffffffffffffffffffffffffff1673ffffffffffffffffffffffffffffffffffffffff166323b872dd3360008054906101000a900473ffffffffffffffffffffffffffffffffffffffff16886040518463ffffffff1660e01b81526004016106a693929190610da8565b6020604051808303816000875af11580156106c5573d6000803e3d6000fd5b505050506040513d601f19601f820116820180604052508101906106e99190610e17565b50600a60009054906101000a900473ffffffffffffffffffffffffffffffffffffffff1673ffffffffffffffffffffffffffffffffffffffff166323b872dd60008054906101000a900473ffffffffffffffffffffffffffffffffffffffff16336004546040518463ffffffff1660e01b815260040161076b93929190610e44565b600060405180830381600087803b15801561078557600080fd5b505af1158015610799573d6000803e3d6000fd5b5050505033600c60006101000a81548173ffffffffffffffffffffffffffffffffffffffff021916908373ffffffffffffffffffffffffffffffffffffffff1602179055505050505050565b600a60009054906101000a900473ffffffffffffffffffffffffffffffffffffffff1681565b60095481565b600d60009054906101000a900473ffffffffffffffffffffffffffffffffffffffff1681565b600160009054906101000a900473ffffffffffffffffffffffffffffffffffffffff1681565b60045481565b60075481565b60085481565b60055481565b600c60009054906101000a900473ffffffffffffffffffffffffffffffffffffffff1681565b600b60009054906101000a900473ffffffffffffffffffffffffffffffffffffffff1681565b600073ffffffffffffffffffffffffffffffffffffffff82169050919050565b60006108ec826108c1565b9050919050565b6108fc816108e1565b82525050565b600060208201905061091760008301846108f3565b92915050565b6000610928826108c1565b9050919050565b6109388161091d565b82525050565b6000602082019050610953600083018461092f565b92915050565b6000819050919050565b61096c81610959565b82525050565b60006020820190506109876000830184610963565b92915050565b600080fd5b61099b81610959565b81146109a657600080fd5b50565b6000813590506109b881610992565b92915050565b6000602082840312156109d4576109d361098d565b5b60006109e2848285016109a9565b91505092915050565b6000819050919050565b6000610a10610a0b610a06846108c1565b6109eb565b6108c1565b9050919050565b6000610a22826109f5565b9050919050565b6000610a3482610a17565b9050919050565b610a4481610a29565b82525050565b6000602082019050610a5f6000830184610a3b565b92915050565b6000610a7082610a17565b9050919050565b610a8081610a65565b82525050565b6000602082019050610a9b6000830184610a77565b92915050565b600082825260208201905092915050565b7f41756374696f6e2066696e697368656400000000000000000000000000000000600082015250565b6000610ae8601083610aa1565b9150610af382610ab2565b602082019050919050565b60006020820190508181036000830152610b1781610adb565b9050919050565b7f4d75737420626964206d6f7265207468616e2072657365727665207072696365600082015250565b6000610b54602083610aa1565b9150610b5f82610b1e565b602082019050919050565b60006020820190508181036000830152610b8381610b47565b9050919050565b7f4e487b7100000000000000000000000000000000000000000000000000000000600052601160045260246000fd5b6000610bc482610959565b9150610bcf83610959565b925082821015610be257610be1610b8a565b5b828203905092915050565b6000610bf882610959565b9150610c0383610959565b9250817fffffffffffffffffffffffffffffffffffffffffffffffffffffffffffffffff0483118215151615610c3c57610c3b610b8a565b5b828202905092915050565b7f4d75737420626964206d6f7265207468616e2063757272656e74207072696365600082015250565b6000610c7d602083610aa1565b9150610c8882610c47565b602082019050919050565b60006020820190508181036000830152610cac81610c70565b9050919050565b600081519050610cc281610992565b92915050565b600060208284031215610cde57610cdd61098d565b5b6000610cec84828501610cb3565b91505092915050565b7f596f75206e65656420746f206861766520656e6f75676820746f6b656e20746f60008201527f2062696400000000000000000000000000000000000000000000000000000000602082015250565b6000610d51602483610aa1565b9150610d5c82610cf5565b604082019050919050565b60006020820190508181036000830152610d8081610d44565b9050919050565b6000610d9282610a17565b9050919050565b610da281610d87565b82525050565b6000606082019050610dbd600083018661092f565b610dca6020830185610d99565b610dd76040830184610963565b949350505050565b60008115159050919050565b610df481610ddf565b8114610dff57600080fd5b50565b600081519050610e1181610deb565b92915050565b600060208284031215610e2d57610e2c61098d565b5b6000610e3b84828501610e02565b91505092915050565b6000606082019050610e596000830186610d99565b610e66602083018561092f565b610e736040830184610963565b94935050505056fea2646970667358221220cd2e160bf13f8866387b82cc60537cf94dad68f56b7b54f355a4d81b16eb117f64736f6c634300080d0033",
  "linkReferences": {},
  "deployedLinkReferences": {}
}