{
  "_format": "hh-sol-artifact-1",
  "contractName": "DutchAuctionNFT",
  "sourceName": "contracts/DutchAuctionNFT.sol",
  "abi": [
    {
      "inputs": [],
      "name": "ERC20TokenAddress",
      "outputs": [
        {
          "internalType": "address",
          "name": "",
          "type": "address"
        }
      ],
      "stateMutability": "view",
      "type": "function"
    },
    {
      "inputs": [],
      "name": "ERC721TokenAddress",
      "outputs": [
        {
          "internalType": "address",
          "name": "",
          "type": "address"
        }
      ],
      "stateMutability": "view",
      "type": "function"
    },
    {
      "inputs": [
        {
          "internalType": "uint256",
          "name": "_tokenAmount",
          "type": "uint256"
        }
      ],
      "name": "bid",
      "outputs": [
        {
          "internalType": "address",
          "name": "",
          "type": "address"
        }
      ],
      "stateMutability": "nonpayable",
      "type": "function"
    },
    {
      "inputs": [],
      "name": "logicContractAddress",
      "outputs": [
        {
          "internalType": "address",
          "name": "",
          "type": "address"
        }
      ],
      "stateMutability": "view",
      "type": "function"
    },
    {
      "inputs": [],
      "name": "nft",
      "outputs": [
        {
          "internalType": "contract IERC721",
          "name": "",
          "type": "address"
        }
      ],
      "stateMutability": "view",
      "type": "function"
    },
    {
      "inputs": [],
      "name": "nftId",
      "outputs": [
        {
          "internalType": "uint256",
          "name": "",
          "type": "uint256"
        }
      ],
      "stateMutability": "view",
      "type": "function"
    },
    {
      "inputs": [],
      "name": "numBlocksAuctionOpen",
      "outputs": [
        {
          "internalType": "uint256",
          "name": "",
          "type": "uint256"
        }
      ],
      "stateMutability": "view",
      "type": "function"
    },
    {
      "inputs": [],
      "name": "offerPriceDecrement",
      "outputs": [
        {
          "internalType": "uint256",
          "name": "",
          "type": "uint256"
        }
      ],
      "stateMutability": "view",
      "type": "function"
    },
    {
      "inputs": [],
      "name": "reservePrice",
      "outputs": [
        {
          "internalType": "uint256",
          "name": "",
          "type": "uint256"
        }
      ],
      "stateMutability": "view",
      "type": "function"
    },
    {
      "inputs": [],
      "name": "seller",
      "outputs": [
        {
          "internalType": "address payable",
          "name": "",
          "type": "address"
        }
      ],
      "stateMutability": "view",
      "type": "function"
    },
    {
      "inputs": [],
      "name": "startedBlockNumber",
      "outputs": [
        {
          "internalType": "uint256",
          "name": "",
          "type": "uint256"
        }
      ],
      "stateMutability": "view",
      "type": "function"
    },
    {
      "inputs": [],
      "name": "startingPrice",
      "outputs": [
        {
          "internalType": "uint256",
          "name": "",
          "type": "uint256"
        }
      ],
      "stateMutability": "view",
      "type": "function"
    },
    {
      "inputs": [],
      "name": "token",
      "outputs": [
        {
          "internalType": "contract IERC20",
          "name": "",
          "type": "address"
        }
      ],
      "stateMutability": "view",
      "type": "function"
    },
    {
      "inputs": [],
      "name": "user",
      "outputs": [
        {
          "internalType": "address",
          "name": "",
          "type": "address"
        }
      ],
      "stateMutability": "view",
      "type": "function"
    },
    {
      "inputs": [],
      "name": "winner",
      "outputs": [
        {
          "internalType": "address",
          "name": "",
          "type": "address"
        }
      ],
      "stateMutability": "view",
      "type": "function"
    }
  ],
  "bytecode": "0x608060405234801561001057600080fd5b50610ee2806100206000396000f3fe608060405234801561001057600080fd5b50600436106100f55760003560e01c80634f8632ba11610097578063d6fbf20211610066578063d6fbf20214610256578063db2e1eed14610274578063dfbf53ae14610292578063fc0c546a146102b0576100f5565b80634f8632ba146101de578063bccda810146101fc578063c6bc51821461021a578063d3642a8814610238576100f5565b80633103ea62116100d35780633103ea6214610154578063454a2ab31461017257806347ccca02146101a25780634a202600146101c0576100f5565b806308551a53146100fa5780631aef99b7146101185780631d3a78be14610136575b600080fd5b6101026102ce565b60405161010f9190610941565b60405180910390f35b6101206102f2565b60405161012d919061097d565b60405180910390f35b61013e610318565b60405161014b919061097d565b60405180910390f35b61015c61033e565b60405161016991906109b1565b60405180910390f35b61018c600480360381019061018791906109fd565b610344565b604051610199919061097d565b60405180910390f35b6101aa610824565b6040516101b79190610a89565b60405180910390f35b6101c861084a565b6040516101d591906109b1565b60405180910390f35b6101e6610850565b6040516101f3919061097d565b60405180910390f35b610204610876565b604051610211919061097d565b60405180910390f35b61022261089c565b60405161022f91906109b1565b60405180910390f35b6102406108a2565b60405161024d91906109b1565b60405180910390f35b61025e6108a8565b60405161026b91906109b1565b60405180910390f35b61027c6108ae565b60405161028991906109b1565b60405180910390f35b61029a6108b4565b6040516102a7919061097d565b60405180910390f35b6102b86108da565b6040516102c59190610ac5565b60405180910390f35b60008054906101000a900473ffffffffffffffffffffffffffffffffffffffff1681565b600260009054906101000a900473ffffffffffffffffffffffffffffffffffffffff1681565b600360009054906101000a900473ffffffffffffffffffffffffffffffffffffffff1681565b60065481565b60008073ffffffffffffffffffffffffffffffffffffffff16600c60009054906101000a900473ffffffffffffffffffffffffffffffffffffffff1673ffffffffffffffffffffffffffffffffffffffff16146103d6576040517f08c379a00000000000000000000000000000000000000000000000000000000081526004016103cd90610b3d565b60405180910390fd5b60055482101561041b576040517f08c379a000000000000000000000000000000000000000000000000000000000815260040161041290610ba9565b60405180910390fd5b60006009544361042b9190610bf8565b905060008160075461043d9190610c2c565b905060008160085461044f9190610bf8565b905084811115610494576040517f08c379a000000000000000000000000000000000000000000000000000000000815260040161048b90610cd2565b60405180910390fd5b600260009054906101000a900473ffffffffffffffffffffffffffffffffffffffff16600b60006101000a81548173ffffffffffffffffffffffffffffffffffffffff021916908373ffffffffffffffffffffffffffffffffffffffff160217905550600360009054906101000a900473ffffffffffffffffffffffffffffffffffffffff16600a60006101000a81548173ffffffffffffffffffffffffffffffffffffffff021916908373ffffffffffffffffffffffffffffffffffffffff1602179055506000600b60009054906101000a900473ffffffffffffffffffffffffffffffffffffffff1673ffffffffffffffffffffffffffffffffffffffff166370a08231600d60009054906101000a900473ffffffffffffffffffffffffffffffffffffffff166040518263ffffffff1660e01b81526004016105d9919061097d565b602060405180830381865afa1580156105f6573d6000803e3d6000fd5b505050506040513d601f19601f8201168201806040525081019061061a9190610d07565b905085811161065e576040517f08c379a000000000000000000000000000000000000000000000000000000000815260040161065590610da6565b60405180910390fd5b600b60009054906101000a900473ffffffffffffffffffffffffffffffffffffffff1673ffffffffffffffffffffffffffffffffffffffff1663a9059cbb600d60009054906101000a900473ffffffffffffffffffffffffffffffffffffffff16886040518363ffffffff1660e01b81526004016106dd929190610dc6565b6020604051808303816000875af11580156106fc573d6000803e3d6000fd5b505050506040513d601f19601f820116820180604052508101906107209190610e27565b50600a60009054906101000a900473ffffffffffffffffffffffffffffffffffffffff1673ffffffffffffffffffffffffffffffffffffffff166323b872dd60008054906101000a900473ffffffffffffffffffffffffffffffffffffffff16600d60009054906101000a900473ffffffffffffffffffffffffffffffffffffffff166004546040518463ffffffff1660e01b81526004016107c493929190610e75565b600060405180830381600087803b1580156107de57600080fd5b505af11580156107f2573d6000803e3d6000fd5b50505050600d60009054906101000a900473ffffffffffffffffffffffffffffffffffffffff16945050505050919050565b600a60009054906101000a900473ffffffffffffffffffffffffffffffffffffffff1681565b60095481565b600d60009054906101000a900473ffffffffffffffffffffffffffffffffffffffff1681565b600160009054906101000a900473ffffffffffffffffffffffffffffffffffffffff1681565b60045481565b60075481565b60085481565b60055481565b600c60009054906101000a900473ffffffffffffffffffffffffffffffffffffffff1681565b600b60009054906101000a900473ffffffffffffffffffffffffffffffffffffffff1681565b600073ffffffffffffffffffffffffffffffffffffffff82169050919050565b600061092b82610900565b9050919050565b61093b81610920565b82525050565b60006020820190506109566000830184610932565b92915050565b600061096782610900565b9050919050565b6109778161095c565b82525050565b6000602082019050610992600083018461096e565b92915050565b6000819050919050565b6109ab81610998565b82525050565b60006020820190506109c660008301846109a2565b92915050565b600080fd5b6109da81610998565b81146109e557600080fd5b50565b6000813590506109f7816109d1565b92915050565b600060208284031215610a1357610a126109cc565b5b6000610a21848285016109e8565b91505092915050565b6000819050919050565b6000610a4f610a4a610a4584610900565b610a2a565b610900565b9050919050565b6000610a6182610a34565b9050919050565b6000610a7382610a56565b9050919050565b610a8381610a68565b82525050565b6000602082019050610a9e6000830184610a7a565b92915050565b6000610aaf82610a56565b9050919050565b610abf81610aa4565b82525050565b6000602082019050610ada6000830184610ab6565b92915050565b600082825260208201905092915050565b7f41756374696f6e2066696e697368656400000000000000000000000000000000600082015250565b6000610b27601083610ae0565b9150610b3282610af1565b602082019050919050565b60006020820190508181036000830152610b5681610b1a565b9050919050565b7f4d75737420626964206d6f7265207468616e2072657365727665207072696365600082015250565b6000610b93602083610ae0565b9150610b9e82610b5d565b602082019050919050565b60006020820190508181036000830152610bc281610b86565b9050919050565b7f4e487b7100000000000000000000000000000000000000000000000000000000600052601160045260246000fd5b6000610c0382610998565b9150610c0e83610998565b925082821015610c2157610c20610bc9565b5b828203905092915050565b6000610c3782610998565b9150610c4283610998565b9250817fffffffffffffffffffffffffffffffffffffffffffffffffffffffffffffffff0483118215151615610c7b57610c7a610bc9565b5b828202905092915050565b7f4d75737420626964206d6f7265207468616e2063757272656e74207072696365600082015250565b6000610cbc602083610ae0565b9150610cc782610c86565b602082019050919050565b60006020820190508181036000830152610ceb81610caf565b9050919050565b600081519050610d01816109d1565b92915050565b600060208284031215610d1d57610d1c6109cc565b5b6000610d2b84828501610cf2565b91505092915050565b7f596f75206e65656420746f206861766520656e6f75676820746f6b656e20746f60008201527f2062696400000000000000000000000000000000000000000000000000000000602082015250565b6000610d90602483610ae0565b9150610d9b82610d34565b604082019050919050565b60006020820190508181036000830152610dbf81610d83565b9050919050565b6000604082019050610ddb600083018561096e565b610de860208301846109a2565b9392505050565b60008115159050919050565b610e0481610def565b8114610e0f57600080fd5b50565b600081519050610e2181610dfb565b92915050565b600060208284031215610e3d57610e3c6109cc565b5b6000610e4b84828501610e12565b91505092915050565b6000610e5f82610a56565b9050919050565b610e6f81610e54565b82525050565b6000606082019050610e8a6000830186610e66565b610e97602083018561096e565b610ea460408301846109a2565b94935050505056fea2646970667358221220aa67623142166eb07d1236f6900e5ba050e9937c77e36beded1c5e686247ca2f64736f6c634300080d0033",
  "linkReferences": {},
  "deployedLinkReferences": {}
}